{
  "_format": "hh-sol-artifact-1",
  "contractName": "ArtPlanningDAO",
  "sourceName": "contracts/ArtPlanningDAO.sol",
  "abi": [
    {
      "anonymous": false,
      "inputs": [
        {
          "indexed": false,
          "internalType": "uint256",
          "name": "id",
          "type": "uint256"
        },
        {
          "indexed": false,
          "internalType": "string",
          "name": "title",
          "type": "string"
        },
        {
          "indexed": false,
          "internalType": "address",
          "name": "proposer",
          "type": "address"
        }
      ],
      "name": "ProposalCreated",
      "type": "event"
    },
    {
      "anonymous": false,
      "inputs": [
        {
          "indexed": false,
          "internalType": "uint256",
          "name": "id",
          "type": "uint256"
        },
        {
          "indexed": false,
          "internalType": "enum ArtPlanningDAO.ProposalStatus",
          "name": "newStatus",
          "type": "uint8"
        }
      ],
      "name": "StatusChanged",
      "type": "event"
    },
    {
      "anonymous": false,
      "inputs": [
        {
          "indexed": false,
          "internalType": "uint256",
          "name": "id",
          "type": "uint256"
        },
        {
          "indexed": false,
          "internalType": "address",
          "name": "voter",
          "type": "address"
        },
        {
          "indexed": false,
          "internalType": "uint256",
          "name": "currentVotes",
          "type": "uint256"
        }
      ],
      "name": "Voted",
      "type": "event"
    },
    {
      "inputs": [
        {
          "internalType": "string",
          "name": "_title",
          "type": "string"
        },
        {
          "internalType": "string",
          "name": "_description",
          "type": "string"
        },
        {
          "internalType": "string",
          "name": "_imageUrl",
          "type": "string"
        }
      ],
      "name": "createProposal",
      "outputs": [],
      "stateMutability": "nonpayable",
      "type": "function"
    },
    {
      "inputs": [],
      "name": "getAllProposals",
      "outputs": [
        {
          "components": [
            {
              "internalType": "uint256",
              "name": "id",
              "type": "uint256"
            },
            {
              "internalType": "string",
              "name": "title",
              "type": "string"
            },
            {
              "internalType": "string",
              "name": "description",
              "type": "string"
            },
            {
              "internalType": "string",
              "name": "imageUrl",
              "type": "string"
            },
            {
              "internalType": "uint256",
              "name": "voteCount",
              "type": "uint256"
            },
            {
              "internalType": "address",
              "name": "proposer",
              "type": "address"
            },
            {
              "internalType": "enum ArtPlanningDAO.ProposalStatus",
              "name": "status",
              "type": "uint8"
            }
          ],
          "internalType": "struct ArtPlanningDAO.Proposal[]",
          "name": "",
          "type": "tuple[]"
        }
      ],
      "stateMutability": "view",
      "type": "function"
    },
    {
      "inputs": [
        {
          "internalType": "uint256",
          "name": "_id",
          "type": "uint256"
        }
      ],
      "name": "getProposal",
      "outputs": [
        {
          "components": [
            {
              "internalType": "uint256",
              "name": "id",
              "type": "uint256"
            },
            {
              "internalType": "string",
              "name": "title",
              "type": "string"
            },
            {
              "internalType": "string",
              "name": "description",
              "type": "string"
            },
            {
              "internalType": "string",
              "name": "imageUrl",
              "type": "string"
            },
            {
              "internalType": "uint256",
              "name": "voteCount",
              "type": "uint256"
            },
            {
              "internalType": "address",
              "name": "proposer",
              "type": "address"
            },
            {
              "internalType": "enum ArtPlanningDAO.ProposalStatus",
              "name": "status",
              "type": "uint8"
            }
          ],
          "internalType": "struct ArtPlanningDAO.Proposal",
          "name": "",
          "type": "tuple"
        }
      ],
      "stateMutability": "view",
      "type": "function"
    },
    {
      "inputs": [
        {
          "internalType": "uint256",
          "name": "",
          "type": "uint256"
        },
        {
          "internalType": "address",
          "name": "",
          "type": "address"
        }
      ],
      "name": "hasVoted",
      "outputs": [
        {
          "internalType": "bool",
          "name": "",
          "type": "bool"
        }
      ],
      "stateMutability": "view",
      "type": "function"
    },
    {
      "inputs": [
        {
          "internalType": "uint256",
          "name": "",
          "type": "uint256"
        }
      ],
      "name": "proposals",
      "outputs": [
        {
          "internalType": "uint256",
          "name": "id",
          "type": "uint256"
        },
        {
          "internalType": "string",
          "name": "title",
          "type": "string"
        },
        {
          "internalType": "string",
          "name": "description",
          "type": "string"
        },
        {
          "internalType": "string",
          "name": "imageUrl",
          "type": "string"
        },
        {
          "internalType": "uint256",
          "name": "voteCount",
          "type": "uint256"
        },
        {
          "internalType": "address",
          "name": "proposer",
          "type": "address"
        },
        {
          "internalType": "enum ArtPlanningDAO.ProposalStatus",
          "name": "status",
          "type": "uint8"
        }
      ],
      "stateMutability": "view",
      "type": "function"
    },
    {
      "inputs": [
        {
          "internalType": "uint256",
          "name": "_id",
          "type": "uint256"
        }
      ],
      "name": "vote",
      "outputs": [],
      "stateMutability": "nonpayable",
      "type": "function"
    }
  ],
  "bytecode": "0x608060405234801561001057600080fd5b506111d4806100206000396000f3fe608060405234801561001057600080fd5b50600436106100625760003560e01c80630121b93f14610067578063013cf08b1461007c57806343859632146100ab578063583cf379146100e9578063c7f758a8146100fc578063cceb68f51461011c575b600080fd5b61007a610075366004610c5c565b610131565b005b61008f61008a366004610c5c565b6103e7565b6040516100a29796959493929190610cf3565b60405180910390f35b6100d96100b9366004610d65565b600160209081526000928352604080842090915290825290205460ff1681565b60405190151581526020016100a2565b61007a6100f7366004610e44565b6105dc565b61010f61010a366004610c5c565b610748565b6040516100a29190610f57565b610124610994565b6040516100a29190610f71565b600054811061017d5760405162461bcd60e51b8152602060048201526013602482015272125b9d985b1a5908141c9bdc1bdcd85b081251606a1b60448201526064015b60405180910390fd5b600081815260016020908152604080832033845290915290205460ff16156101d75760405162461bcd60e51b815260206004820152600d60248201526c105b1c9958591e481d9bdd1959609a1b6044820152606401610174565b60008082815481106101eb576101eb610fd3565b906000526020600020906006020160050160149054906101000a900460ff16600281111561021b5761021b610cbb565b146102575760405162461bcd60e51b815260206004820152600c60248201526b159bdd1a5b99c8195b99195960a21b6044820152606401610174565b60016000828154811061026c5761026c610fd3565b9060005260206000209060060201600401600082825461028c9190610fe9565b909155505060008181526001602081815260408084203380865292528320805460ff191690921790915581547f1abe610cf2bf87e57dcc1181fcf5ac0934e843d8344ab9eed6e86c799f62585e92849291839081106102ed576102ed610fd3565b906000526020600020906006020160040154604051610328939291909283526001600160a01b03919091166020830152604082015260600190565b60405180910390a160056000828154811061034557610345610fd3565b906000526020600020906006020160040154106103e45760016000828154811061037157610371610fd3565b60009182526020909120600560069092020101805460ff60a01b1916600160a01b8360028111156103a4576103a4610cbb565b02179055507f365a3d0a71be5f440c8224437355d5bd81a703759bf906e441902272bfbafcb38160016040516103db929190611010565b60405180910390a15b50565b600081815481106103f757600080fd5b6000918252602090912060069091020180546001820180549193509061041c90611024565b80601f016020809104026020016040519081016040528092919081815260200182805461044890611024565b80156104955780601f1061046a57610100808354040283529160200191610495565b820191906000526020600020905b81548152906001019060200180831161047857829003601f168201915b5050505050908060020180546104aa90611024565b80601f01602080910402602001604051908101604052809291908181526020018280546104d690611024565b80156105235780601f106104f857610100808354040283529160200191610523565b820191906000526020600020905b81548152906001019060200180831161050657829003601f168201915b50505050509080600301805461053890611024565b80601f016020809104026020016040519081016040528092919081815260200182805461056490611024565b80156105b15780601f10610586576101008083540402835291602001916105b1565b820191906000526020600020905b81548152906001019060200180831161059457829003601f168201915b5050505060048301546005909301549192916001600160a01b0381169150600160a01b900460ff1687565b600080546040805160e0810182528281526020810187815291810186905260608101859052608081018490523360a082015260c081018490526001830184559280528251600683027f290decd9548b62a8d60345a988386fc84ba6bc95484008f6362f93160ef3e5638101918255915192939290917f290decd9548b62a8d60345a988386fc84ba6bc95484008f6362f93160ef3e564019061067e90826110ad565b506040820151600282019061069390826110ad565b50606082015160038201906106a890826110ad565b506080820151600482015560a08201516005820180546001600160a01b039092166001600160a01b031983168117825560c0850151926001600160a81b03191617600160a01b83600281111561070057610700610cbb565b021790555050507fc8c078bfee58e5822588f08b4509ed1eb5058e03f666cca84dd2d44bf5c288a881853360405161073a9392919061116d565b60405180910390a150505050565b610750610c06565b6000828154811061076357610763610fd3565b90600052602060002090600602016040518060e00160405290816000820154815260200160018201805461079690611024565b80601f01602080910402602001604051908101604052809291908181526020018280546107c290611024565b801561080f5780601f106107e45761010080835404028352916020019161080f565b820191906000526020600020905b8154815290600101906020018083116107f257829003601f168201915b5050505050815260200160028201805461082890611024565b80601f016020809104026020016040519081016040528092919081815260200182805461085490611024565b80156108a15780601f10610876576101008083540402835291602001916108a1565b820191906000526020600020905b81548152906001019060200180831161088457829003601f168201915b505050505081526020016003820180546108ba90611024565b80601f01602080910402602001604051908101604052809291908181526020018280546108e690611024565b80156109335780601f1061090857610100808354040283529160200191610933565b820191906000526020600020905b81548152906001019060200180831161091657829003601f168201915b50505091835250506004820154602082015260058201546001600160a01b0381166040830152606090910190600160a01b900460ff16600281111561097a5761097a610cbb565b600281111561098b5761098b610cbb565b90525092915050565b60606000805480602002602001604051908101604052809291908181526020016000905b82821015610bfd57838290600052602060002090600602016040518060e0016040529081600082015481526020016001820180546109f590611024565b80601f0160208091040260200160405190810160405280929190818152602001828054610a2190611024565b8015610a6e5780601f10610a4357610100808354040283529160200191610a6e565b820191906000526020600020905b815481529060010190602001808311610a5157829003601f168201915b50505050508152602001600282018054610a8790611024565b80601f0160208091040260200160405190810160405280929190818152602001828054610ab390611024565b8015610b005780601f10610ad557610100808354040283529160200191610b00565b820191906000526020600020905b815481529060010190602001808311610ae357829003601f168201915b50505050508152602001600382018054610b1990611024565b80601f0160208091040260200160405190810160405280929190818152602001828054610b4590611024565b8015610b925780601f10610b6757610100808354040283529160200191610b92565b820191906000526020600020905b815481529060010190602001808311610b7557829003601f168201915b50505091835250506004820154602082015260058201546001600160a01b0381166040830152606090910190600160a01b900460ff166002811115610bd957610bd9610cbb565b6002811115610bea57610bea610cbb565b81525050815260200190600101906109b8565b50505050905090565b6040518060e00160405280600081526020016060815260200160608152602001606081526020016000815260200160006001600160a01b0316815260200160006002811115610c5757610c57610cbb565b905290565b600060208284031215610c6e57600080fd5b5035919050565b6000815180845260005b81811015610c9b57602081850181015186830182015201610c7f565b506000602082860101526020601f19601f83011685010191505092915050565b634e487b7160e01b600052602160045260246000fd5b60038110610cef57634e487b7160e01b600052602160045260246000fd5b9052565b87815260e060208201526000610d0c60e0830189610c75565b8281036040840152610d1e8189610c75565b90508281036060840152610d328188610c75565b608084018790526001600160a01b03861660a08501529150610d59905060c0830184610cd1565b98975050505050505050565b60008060408385031215610d7857600080fd5b8235915060208301356001600160a01b0381168114610d9657600080fd5b809150509250929050565b634e487b7160e01b600052604160045260246000fd5b600082601f830112610dc857600080fd5b813567ffffffffffffffff80821115610de357610de3610da1565b604051601f8301601f19908116603f01168101908282118183101715610e0b57610e0b610da1565b81604052838152866020858801011115610e2457600080fd5b836020870160208301376000602085830101528094505050505092915050565b600080600060608486031215610e5957600080fd5b833567ffffffffffffffff80821115610e7157600080fd5b610e7d87838801610db7565b94506020860135915080821115610e9357600080fd5b610e9f87838801610db7565b93506040860135915080821115610eb557600080fd5b50610ec286828701610db7565b9150509250925092565b805182526000602082015160e06020850152610eeb60e0850182610c75565b905060408301518482036040860152610f048282610c75565b91505060608301518482036060860152610f1e8282610c75565b9150506080830151608085015260018060a01b0360a08401511660a085015260c0830151610f4f60c0860182610cd1565b509392505050565b602081526000610f6a6020830184610ecc565b9392505050565b6000602080830181845280855180835260408601915060408160051b870101925083870160005b82811015610fc657603f19888603018452610fb4858351610ecc565b94509285019290850190600101610f98565b5092979650505050505050565b634e487b7160e01b600052603260045260246000fd5b8082018082111561100a57634e487b7160e01b600052601160045260246000fd5b92915050565b82815260408101610f6a6020830184610cd1565b600181811c9082168061103857607f821691505b60208210810361105857634e487b7160e01b600052602260045260246000fd5b50919050565b601f8211156110a857600081815260208120601f850160051c810160208610156110855750805b601f850160051c820191505b818110156110a457828155600101611091565b5050505b505050565b815167ffffffffffffffff8111156110c7576110c7610da1565b6110db816110d58454611024565b8461105e565b602080601f83116001811461111057600084156110f85750858301515b600019600386901b1c1916600185901b1785556110a4565b600085815260208120601f198616915b8281101561113f57888601518255948401946001909101908401611120565b508582101561115d5787850151600019600388901b60f8161c191681555b5050505050600190811b01905550565b8381526060602082015260006111866060830185610c75565b905060018060a01b038316604083015294935050505056fea26469706673582212208d7f768337b7177a4eb41254753370c8293455780cdd19f58c4d400588b4d4bb64736f6c63430008140033",
  "linkReferences": {},
  "deployedLinkReferences": {}
}